{
  "_format": "hh-sol-artifact-1",
  "contractName": "TouristID",
  "sourceName": "contracts/TouristID.sol",
  "abi": [
    {
      "inputs": [],
      "stateMutability": "nonpayable",
      "type": "constructor"
    },
    {
      "inputs": [],
      "name": "AccessControlBadConfirmation",
      "type": "error"
    },
    {
      "inputs": [
        {
          "internalType": "address",
          "name": "account",
          "type": "address"
        },
        {
          "internalType": "bytes32",
          "name": "neededRole",
          "type": "bytes32"
        }
      ],
      "name": "AccessControlUnauthorizedAccount",
      "type": "error"
    },
    {
      "anonymous": false,
      "inputs": [
        {
          "indexed": true,
          "internalType": "bytes32",
          "name": "role",
          "type": "bytes32"
        },
        {
          "indexed": true,
          "internalType": "bytes32",
          "name": "previousAdminRole",
          "type": "bytes32"
        },
        {
          "indexed": true,
          "internalType": "bytes32",
          "name": "newAdminRole",
          "type": "bytes32"
        }
      ],
      "name": "RoleAdminChanged",
      "type": "event"
    },
    {
      "anonymous": false,
      "inputs": [
        {
          "indexed": true,
          "internalType": "bytes32",
          "name": "role",
          "type": "bytes32"
        },
        {
          "indexed": true,
          "internalType": "address",
          "name": "account",
          "type": "address"
        },
        {
          "indexed": true,
          "internalType": "address",
          "name": "sender",
          "type": "address"
        }
      ],
      "name": "RoleGranted",
      "type": "event"
    },
    {
      "anonymous": false,
      "inputs": [
        {
          "indexed": true,
          "internalType": "bytes32",
          "name": "role",
          "type": "bytes32"
        },
        {
          "indexed": true,
          "internalType": "address",
          "name": "account",
          "type": "address"
        },
        {
          "indexed": true,
          "internalType": "address",
          "name": "sender",
          "type": "address"
        }
      ],
      "name": "RoleRevoked",
      "type": "event"
    },
    {
      "anonymous": false,
      "inputs": [
        {
          "indexed": true,
          "internalType": "address",
          "name": "touristAddress",
          "type": "address"
        },
        {
          "indexed": false,
          "internalType": "string",
          "name": "name",
          "type": "string"
        }
      ],
      "name": "TouristRegistered",
      "type": "event"
    },
    {
      "inputs": [],
      "name": "DEFAULT_ADMIN_ROLE",
      "outputs": [
        {
          "internalType": "bytes32",
          "name": "",
          "type": "bytes32"
        }
      ],
      "stateMutability": "view",
      "type": "function"
    },
    {
      "inputs": [],
      "name": "POLICE_ROLE",
      "outputs": [
        {
          "internalType": "bytes32",
          "name": "",
          "type": "bytes32"
        }
      ],
      "stateMutability": "view",
      "type": "function"
    },
    {
      "inputs": [],
      "name": "TOURISM_ROLE",
      "outputs": [
        {
          "internalType": "bytes32",
          "name": "",
          "type": "bytes32"
        }
      ],
      "stateMutability": "view",
      "type": "function"
    },
    {
      "inputs": [
        {
          "internalType": "bytes32",
          "name": "role",
          "type": "bytes32"
        }
      ],
      "name": "getRoleAdmin",
      "outputs": [
        {
          "internalType": "bytes32",
          "name": "",
          "type": "bytes32"
        }
      ],
      "stateMutability": "view",
      "type": "function"
    },
    {
      "inputs": [
        {
          "internalType": "address",
          "name": "_touristAddress",
          "type": "address"
        }
      ],
      "name": "getTourist",
      "outputs": [
        {
          "components": [
            {
              "internalType": "string",
              "name": "name",
              "type": "string"
            },
            {
              "internalType": "bytes32",
              "name": "kycHash",
              "type": "bytes32"
            },
            {
              "internalType": "bytes32",
              "name": "itineraryHash",
              "type": "bytes32"
            },
            {
              "internalType": "string",
              "name": "emergencyContact",
              "type": "string"
            },
            {
              "internalType": "uint32",
              "name": "startDate",
              "type": "uint32"
            },
            {
              "internalType": "uint32",
              "name": "endDate",
              "type": "uint32"
            },
            {
              "internalType": "bool",
              "name": "exists",
              "type": "bool"
            }
          ],
          "internalType": "struct TouristID.Tourist",
          "name": "",
          "type": "tuple"
        }
      ],
      "stateMutability": "view",
      "type": "function"
    },
    {
      "inputs": [
        {
          "internalType": "bytes32",
          "name": "role",
          "type": "bytes32"
        },
        {
          "internalType": "address",
          "name": "account",
          "type": "address"
        }
      ],
      "name": "grantRole",
      "outputs": [],
      "stateMutability": "nonpayable",
      "type": "function"
    },
    {
      "inputs": [
        {
          "internalType": "bytes32",
          "name": "role",
          "type": "bytes32"
        },
        {
          "internalType": "address",
          "name": "account",
          "type": "address"
        }
      ],
      "name": "hasRole",
      "outputs": [
        {
          "internalType": "bool",
          "name": "",
          "type": "bool"
        }
      ],
      "stateMutability": "view",
      "type": "function"
    },
    {
      "inputs": [
        {
          "internalType": "address",
          "name": "_touristAddress",
          "type": "address"
        },
        {
          "internalType": "string",
          "name": "_name",
          "type": "string"
        },
        {
          "internalType": "bytes32",
          "name": "_kycHash",
          "type": "bytes32"
        },
        {
          "internalType": "bytes32",
          "name": "_itineraryHash",
          "type": "bytes32"
        },
        {
          "internalType": "string",
          "name": "_emergencyContact",
          "type": "string"
        },
        {
          "internalType": "uint32",
          "name": "_startDate",
          "type": "uint32"
        },
        {
          "internalType": "uint32",
          "name": "_endDate",
          "type": "uint32"
        }
      ],
      "name": "registerTourist",
      "outputs": [],
      "stateMutability": "nonpayable",
      "type": "function"
    },
    {
      "inputs": [
        {
          "internalType": "bytes32",
          "name": "role",
          "type": "bytes32"
        },
        {
          "internalType": "address",
          "name": "callerConfirmation",
          "type": "address"
        }
      ],
      "name": "renounceRole",
      "outputs": [],
      "stateMutability": "nonpayable",
      "type": "function"
    },
    {
      "inputs": [
        {
          "internalType": "bytes32",
          "name": "role",
          "type": "bytes32"
        },
        {
          "internalType": "address",
          "name": "account",
          "type": "address"
        }
      ],
      "name": "revokeRole",
      "outputs": [],
      "stateMutability": "nonpayable",
      "type": "function"
    },
    {
      "inputs": [
        {
          "internalType": "bytes4",
          "name": "interfaceId",
          "type": "bytes4"
        }
      ],
      "name": "supportsInterface",
      "outputs": [
        {
          "internalType": "bool",
          "name": "",
          "type": "bool"
        }
      ],
      "stateMutability": "view",
      "type": "function"
    }
  ],
  "bytecode": "0x608060405234801561001057600080fd5b5061001c600033610078565b506100477f5b19ce4b5c8feac4ff09a5f1e6dda0c6943aa99b427c1080c3f3eb35a704442a33610078565b506100727f3c897272fb756004d8a8588422a9ce6e04768b2d705bbde7a87ceb35e9b9c5d933610078565b50610124565b6000828152602081815260408083206001600160a01b038516845290915281205460ff1661011a576000838152602081815260408083206001600160a01b03861684529091529020805460ff191660011790556100d23390565b6001600160a01b0316826001600160a01b0316847f2f8788117e7eff1d82e926ec794901d17c78024a50270940304540a733656f0d60405160405180910390a450600161011e565b5060005b92915050565b610d00806101336000396000f3fe608060405234801561001057600080fd5b50600436106100a95760003560e01c806336568abe1161007157806336568abe1461016a57806391d148541461017d578063a217fddf14610190578063bf33cd4a14610198578063d547741f146101b8578063f26269f9146101cb57600080fd5b806301ffc9a7146100ae5780632087a00e146100d6578063248a9ca31461010b5780632f2ff15d1461012e5780632f6b167614610143575b600080fd5b6100c16100bc366004610895565b6101de565b60405190151581526020015b60405180910390f35b6100fd7f3c897272fb756004d8a8588422a9ce6e04768b2d705bbde7a87ceb35e9b9c5d981565b6040519081526020016100cd565b6100fd6101193660046108c6565b60009081526020819052604090206001015490565b61014161013c3660046108fb565b610215565b005b6100fd7f5b19ce4b5c8feac4ff09a5f1e6dda0c6943aa99b427c1080c3f3eb35a704442a81565b6101416101783660046108fb565b610240565b6100c161018b3660046108fb565b610278565b6100fd600081565b6101ab6101a6366004610927565b6102a1565b6040516100cd9190610988565b6101416101c63660046108fb565b610565565b6101416101d9366004610ac6565b61058a565b60006001600160e01b03198216637965db0b60e01b148061020f57506301ffc9a760e01b6001600160e01b03198316145b92915050565b6000828152602081905260409020600101546102308161074e565b61023a838361075b565b50505050565b6001600160a01b03811633146102695760405163334bd91960e11b815260040160405180910390fd5b61027382826107ed565b505050565b6000918252602082815260408084206001600160a01b0393909316845291905290205460ff1690565b6040805160e0810182526060808252600060208301819052928201839052808201526080810182905260a0810182905260c08101919091526103037f3c897272fb756004d8a8588422a9ce6e04768b2d705bbde7a87ceb35e9b9c5d933610278565b8061033357506103337f5b19ce4b5c8feac4ff09a5f1e6dda0c6943aa99b427c1080c3f3eb35a704442a33610278565b6103745760405162461bcd60e51b815260206004820152600d60248201526c1058d8d95cdcc819195b9a5959609a1b60448201526064015b60405180910390fd5b6001600160a01b038216600090815260016020526040902060040154600160401b900460ff166103d25760405162461bcd60e51b8152602060048201526009602482015268139bdd08199bdd5b9960ba1b604482015260640161036b565b6001600160a01b03821660009081526001602052604090819020815160e0810190925280548290829061040490610b6f565b80601f016020809104026020016040519081016040528092919081815260200182805461043090610b6f565b801561047d5780601f106104525761010080835404028352916020019161047d565b820191906000526020600020905b81548152906001019060200180831161046057829003601f168201915b5050505050815260200160018201548152602001600282015481526020016003820180546104aa90610b6f565b80601f01602080910402602001604051908101604052809291908181526020018280546104d690610b6f565b80156105235780601f106104f857610100808354040283529160200191610523565b820191906000526020600020905b81548152906001019060200180831161050657829003601f168201915b50505091835250506004919091015463ffffffff80821660208401526401000000008204166040830152600160401b900460ff16151560609091015292915050565b6000828152602081905260409020600101546105808161074e565b61023a83836107ed565b7f5b19ce4b5c8feac4ff09a5f1e6dda0c6943aa99b427c1080c3f3eb35a704442a6105b48161074e565b6001600160a01b038816600090815260016020526040902060040154600160401b900460ff161561061c5760405162461bcd60e51b8152602060048201526012602482015271105b1c9958591e481c9959da5cdd195c995960721b604482015260640161036b565b6040805160e08101825288815260208082018990528183018890526060820187905263ffffffff8087166080840152851660a0830152600160c083018190526001600160a01b038c1660009081529152919091208151819061067e9082610bf7565b506020820151600182015560408201516002820155606082015160038201906106a79082610bf7565b5060808201516004909101805460a084015160c0909401511515600160401b0268ff00000000000000001963ffffffff9586166401000000000267ffffffffffffffff19909316959094169490941717919091169190911790556040516001600160a01b038916907fbc893bb14723c79ec07b43496d1ddfbf7561aacc7902b98bd79cdc97608a09859061073c908a90610cb7565b60405180910390a25050505050505050565b6107588133610858565b50565b60006107678383610278565b6107e5576000838152602081815260408083206001600160a01b03861684529091529020805460ff1916600117905561079d3390565b6001600160a01b0316826001600160a01b0316847f2f8788117e7eff1d82e926ec794901d17c78024a50270940304540a733656f0d60405160405180910390a450600161020f565b50600061020f565b60006107f98383610278565b156107e5576000838152602081815260408083206001600160a01b0386168085529252808320805460ff1916905551339286917ff6391f5c32d9c69d2a47ea670b442974b53935d1edc7fd64eb21e047a839171b9190a450600161020f565b6108628282610278565b6108915760405163e2517d3f60e01b81526001600160a01b03821660048201526024810183905260440161036b565b5050565b6000602082840312156108a757600080fd5b81356001600160e01b0319811681146108bf57600080fd5b9392505050565b6000602082840312156108d857600080fd5b5035919050565b80356001600160a01b03811681146108f657600080fd5b919050565b6000806040838503121561090e57600080fd5b8235915061091e602084016108df565b90509250929050565b60006020828403121561093957600080fd5b6108bf826108df565b6000815180845260005b818110156109685760208185018101518683018201520161094c565b506000602082860101526020601f19601f83011685010191505092915050565b602081526000825160e060208401526109a5610100840182610942565b905060208401516040840152604084015160608401526060840151601f198483030160808501526109d68282610942565b915050608084015163ffffffff80821660a08601528060a08701511660c0860152505060c0840151151560e08401528091505092915050565b634e487b7160e01b600052604160045260246000fd5b600082601f830112610a3657600080fd5b813567ffffffffffffffff80821115610a5157610a51610a0f565b604051601f8301601f19908116603f01168101908282118183101715610a7957610a79610a0f565b81604052838152866020858801011115610a9257600080fd5b836020870160208301376000602085830101528094505050505092915050565b803563ffffffff811681146108f657600080fd5b600080600080600080600060e0888a031215610ae157600080fd5b610aea886108df565b9650602088013567ffffffffffffffff80821115610b0757600080fd5b610b138b838c01610a25565b975060408a0135965060608a0135955060808a0135915080821115610b3757600080fd5b50610b448a828b01610a25565b935050610b5360a08901610ab2565b9150610b6160c08901610ab2565b905092959891949750929550565b600181811c90821680610b8357607f821691505b602082108103610ba357634e487b7160e01b600052602260045260246000fd5b50919050565b601f82111561027357600081815260208120601f850160051c81016020861015610bd05750805b601f850160051c820191505b81811015610bef57828155600101610bdc565b505050505050565b815167ffffffffffffffff811115610c1157610c11610a0f565b610c2581610c1f8454610b6f565b84610ba9565b602080601f831160018114610c5a5760008415610c425750858301515b600019600386901b1c1916600185901b178555610bef565b600085815260208120601f198616915b82811015610c8957888601518255948401946001909101908401610c6a565b5085821015610ca75787850151600019600388901b60f8161c191681555b5050505050600190811b01905550565b6020815260006108bf602083018461094256fea26469706673582212206059728e9a70f82cc93280573484aac7453b53a6b5a65da743dd83585aa7153e64736f6c63430008140033",
  "linkReferences": {},
  "deployedLinkReferences": {}
}